:020000040800F2
:1000000000500020ED010008310200083102000814
:10001000310200083102000831020008000000002F
:100020000000000000000000000000003102000895
:10003000310200080000000031020008310200080F
:1000400031020008310200083102000831020008C4
:1000500031020008310200083102000831020008B4
:1000600031020008310200083102000831020008A4
:100070003102000831020008310200083102000894
:100080003102000831020008310200083102000884
:100090003102000831020008310200083102000874
:1000A0003102000831020008310200083102000864
:1000B0003102000831020008310200083102000854
:1000C0003102000831020008310200083102000844
:1000D0003102000831020008310200083102000834
:1000E000310200083102000831020008000000005F
:1000F0000000000000000000000000000000000000
:0C01000000000000000000005FF808F1A3
:10010C000348044B834202D0034B03B1184770479A
:10011C000400002004000020000000000548064BED
:10012C001B1AD90F01EBA301491002D0034B03B1E9
:10013C001847704704000020040000200000000055
:10014C0010B5064C237843B9FFF7DAFF044B13B113
:10015C000448AFF300800123237010BD040000207D
:10016C00000000005403000808B5054B1BB10549FD
:10017C000548AFF30080BDE80840FFF7CFBF00BFD4
:10018C00000000000800002054030008002201E0D9
:10019C0000BF01324FF4FA6300FB03F39342F7D82C
:1001AC007047000008B50C4A936943F01003936143
:1001BC000A4B5A6822F470025A605A6842F4801250
:1001CC005A60064AD36883F40053D3604FF4FA7034
:1001DC00FFF7DCFFF5E700BF001002400010014004
:1001EC00002103E00A4B5B584350043109480A4B89
:1001FC0042189A42F6D3094A02E0002342F8043B23
:10020C00074B9A42F9D300F00FF8FFF7CBFF70477A
:10021C0078030008000000200400002004000020E7
:10022C00B8010020FEE7000070B50F4B0F4DAB423C
:10023C00A3EB050607D00024B61055F8043B013497
:10024C009847A642F9D800F07FF8094D094B5E1B80
:10025C00AB424FEAA60606D0002455F8043B013405
:10026C009847A642F9D870BD6C0300086C030008CF
:10027C006C03000874030008704700BF704700BF90
:10028C00024B13B1024800F005B8704700000000A3
:10029C00AD020008002301461A46184600F014B8B7
:1002AC0038B5074D074C2C1BA41005D0013C55F854
:1002BC00043D9847002CF9D1BDE8384000F04AB80D
:1002CC0078030008740300082DE9F8431B4D06461B
:1002DC00286898460F469146FFF7CEFF184B1C68CE
:1002EC001CB3286865681F2D22DC4EB96B1C0235C7
:1002FC00636044F82570FFF7C1FF0020BDE8F88368
:10030C00012304EB8501C1F88890D4F88821AB4017
:10031C001A43022EC4F88821C1F80881E6D1D4F81A
:10032C008C211A43C4F88C21E0E7064C1C60D8E7FA
:10033C00FFF7A4FF4FF0FF30E0E700BF0000002004
:10034C002400002028000020F8B500BFF8BC08BC31
:10035C009E467047F8B500BFF8BC08BC9E46704777
:08036C008D0200087501000874
:040374004D0100082F
:040378002000002041
:04000005080001ED01
:00000001FF
