:020000040800F2
:10000000005000201D030008610300086103000880
:10001000610300086103000861030008000000009C
:100020000000000000000000000000006103000864
:10003000610300080000000061030008610300087C
:100040006103000861030008610300086103000800
:1000500061030008610300086103000861030008F0
:1000600061030008610300086103000861030008E0
:1000700061030008610300086103000861030008D0
:1000800061030008610300086103000861030008C0
:1000900061030008610300086103000861030008B0
:1000A00061030008610300086103000861030008A0
:1000B0006103000861030008610300086103000890
:1000C0006103000861030008610300086103000880
:1000D0006103000861030008610300086103000870
:1000E00061030008610300086103000800000000CC
:1000F0000000000000000000000000000000000000
:0C01000000000000000000005FF808F1A3
:10010C000348044B834202D0034B03B1184770479A
:10011C000400002004000020000000000548064BED
:10012C001B1AD90F01EBA301491002D0034B03B1E9
:10013C001847704704000020040000200000000055
:10014C0010B5064C237843B9FFF7DAFF044B13B113
:10015C000448AFF300800123237010BD040000207D
:10016C00000000008404000808B5054B1BB10549CC
:10017C000548AFF30080BDE80840FFF7CFBF00BFD4
:10018C00000000000800002084040008FEE70000C6
:10019C00084B1A6822F010021A601A6842F010021A
:1001AC001A601A6822F007021A601A6842F00402F8
:1001BC001A6070470020024008B53C4A136843F4AB
:1001CC00803313604FF47A7300E01346374A126899
:1001DC0012F4803F03D15A1E002BF6D11346DBB12B
:1001EC00324B5A6822F0F0025A605A685A605A68C8
:1001FC0022F4E0625A605A6842F480625A605A688B
:10020C0022F460525A605A685A601A6822F080725E
:10021C001A604FF47A7302E0FFF7B8FF1346234AD3
:10022C00126812F0007F03D15A1E002BF6D1134630
:10023C007BB11E4B5A6822F47C125A605A6842F405
:10024C00C8125A601A6842F080721A604FF47A73BE
:10025C0002E0FFF79BFF1346144A126812F0007F6E
:10026C0003D15A1E002BF6D113465BB10F4B5A68C3
:10027C0022F003025A605A6842F002025A604FF4AC
:10028C007A7202E0FFF782FF1A46084B5B6803F0B4
:10029C000C03082B03D0531E002AF5D11A4612B1B9
:1002AC00FFF776FF08BDFFF771FF00BF001002409B
:1002BC0000B583B0FFF780FF124BDA6842F00802FA
:1002CC00DA60DA6822F00802DA609A6942F0100209
:1002DC009A61A3F580335A6822F470025A605A6806
:1002EC0042F480125A60084AD36883F40053D360F6
:1002FC0000230193019A054B9A42F4D8019B0133D8
:10030C000193F7E700100240001001408FD003006A
:10031C00002103E00A4B5B584350043109480A4B57
:10032C0042189A42F6D3094A02E0002342F8043BF1
:10033C00074B9A42F9D300F00FF8FFF7B9FF70475B
:10034C00A804000800000020040000200400002085
:10035C00B8010020FEE7000070B50F4B0F4DAB420B
:10036C00A3EB050607D00024B61055F8043B013466
:10037C009847A642F9D800F07FF8094D094B5E1B4F
:10038C00AB424FEAA60606D0002455F8043B0134D4
:10039C009847A642F9D870BD9C0400089C0400083C
:1003AC009C040008A4040008704700BF704700BFFD
:1003BC00024B13B1024800F005B870470000000072
:1003CC00DD030008002301461A46184600F014B855
:1003DC0038B5074D074C2C1BA41005D0013C55F823
:1003EC00043D9847002CF9D1BDE8384000F04AB8DC
:1003FC00A8040008A40400082DE9F8431B4D064688
:10040C00286898460F469146FFF7CEFF184B1C689C
:10041C001CB3286865681F2D22DC4EB96B1C023595
:10042C00636044F82570FFF7C1FF0020BDE8F88336
:10043C00012304EB8501C1F88890D4F88821AB40E6
:10044C001A43022EC4F88821C1F80881E6D1D4F8E9
:10045C008C211A43C4F88C21E0E7064C1C60D8E7C9
:10046C00FFF7A4FF4FF0FF30E0E700BF00000020D3
:10047C002400002028000020F8B500BFF8BC08BC00
:10048C009E467047F8B500BFF8BC08BC9E46704746
:08049C00BD0300087501000812
:0404A4004D010008FE
:0404A8002000002010
:040000050800031DCF
:00000001FF
